:020000040000FA
:100000000C94BD090C94E5090C94E5090C94E509E0
:100010000C94E5090C94E5090C94E5090C94601E18
:100020000C94E5090C94E5090C94E5090C94E50998
:100030000C94E5090C94E5090C94E5090C94E50988
:100040000C94F71C0C94E5090C94E5090C94E50953
:100050000C94E5090C94E5090C94E5090C94E50968
:100060000C94411D0C94E50900000000003E5B4F1C
:100070005B3E3E6B4F6B3E1C3E7C3E1C183C7E3C08
:10008000181C577D571C1C5E7F5E1C00183C180016
:10009000FFE7C3E7FF0018241800FFE7DBE7FF30A6
:1000A000483A060E2629792926407F050507407F14
:1000B00005253F5A3CE73C5A7F3E1C1C08081C1C87
:1000C0003E7F14227F22145F5F005F5F06097F017D
:1000D0007F006689956A606060606094A2FFA29468
:1000E00008047E040810207E201008082A1C080836
:1000F0001C2A08081E101010100C1E0C1E0C303884
:100100003E3830060E3E0E06000000000000005F84
:1001100000000007000700147F147F14242A7F2AA0
:100120001223130864623649562050000807030062
:10013000001C2241000041221C002A1C7F1C2A08AE
:10014000083E080800807030000808080808000011
:1001500060600020100804023E5149453E00427F85
:10016000400072494949462141494D331814127FD4
:100170001027454545393C4A494931412111090774
:100180003649494936464949291E000014000000F5
:1001900040340000000814224114141414140041C7
:1001A00022140802015909063E415D594E7C121184
:1001B000127C7F494949363E414141227F414141BC
:1001C0003E7F494949417F090909013E4141517337
:1001D0007F0808087F00417F41002040413F017FA8
:1001E000081422417F404040407F021C027F7F0470
:1001F00008107F3E4141413E7F090909063E4151B9
:10020000215E7F09192946264949493203017F01A8
:10021000033F4040403F1F2040201F3F4038403FA9
:10022000631408146303047804036159494D4300BF
:100230007F4141410204081020004141417F0402F6
:10024000010204404040404000030708002054548D
:1002500078407F284444383844444428384444286B
:100260007F385454541800087E090218A4A49C78BE
:100270007F0804047800447D40002040403D007F1A
:100280001028440000417F40007C047804787C08FA
:100290000404783844444438FC18242418182424CE
:1002A00018FC7C08040408485454542404043F44B3
:1002B000243C4040207C1C2040201C3C4030403CE2
:1002C00044281028444C9090907C4464544C440042
:1002D00008364100000077000000413608000201A6
:1002E0000204023C2623263C1EA1A161123A404092
:1002F000207A38545455592155557941225454780F
:1003000042215554784020545579400C1E527212A7
:100310003955555559395454545939555454580030
:1003200000457C410002457D420001457C407D1234
:1003300011127DF0282528F07C5455450020545496
:100340007C547C0A097F4932494949323A44444441
:100350003A324A4848303A4141217A3A424020787C
:10036000009DA0A07D3D4242423D3D4040403D3C7D
:1003700024FF2424487E4943662B2FFC2F2BFF09A2
:1003800029F620C0887E0903205454794100004496
:100390007D413048484A32384040227A007A0A0A81
:1003A000727D0D19317D2629292F282629292926F4
:1003B00030484D4020380808080808080808382F39
:1003C00010C8ACBA2F102834FA00007B00000814C3
:1003D0002A142222142A14085500550055AA55AA99
:1003E00055AAFF55FF55FF000000FF00101010FF39
:1003F00000141414FF001010FF00FF1010F010F094
:10040000141414FC001414F700FF0000FF00FF1484
:1004100014F404FC141417101F10101F101F1414D0
:10042000141F00101010F0000000001F101010101A
:100430001F10101010F010000000FF10101010100E
:1004400010101010FF10000000FF140000FF00FF4C
:1004500000001F10170000FC04F4141417101714E8
:1004600014F404F40000FF00F7141414141414140A
:10047000F700F7141414171410101F101F1414147D
:10048000F4141010F010F000001F101F0000001FE7
:1004900014000000FC140000F010F01010FF10FF1A
:1004A000141414FF141010101F00000000F010FFAF
:1004B000FFFFFFFFF0F0F0F0F0FFFFFF0000000093
:1004C00000FFFF0F0F0F0F0F3844443844FC4A4A17
:1004D0004A347E02020606027E027E0263554941CC
:1004E000633844443C04407E201E2006027E020203
:1004F00099A5E7A5991C2A492A1C4C7201724C3017
:100500004A4D4D303048784830BC625A463D3E49ED
:100510004949007E0101017E2A2A2A2A2A44445F91
:10052000444440514A444040444A51400000FF0185
:1005300003E080FF000008086B6B08361236243693
:10054000060F090F060000181800000010100030F8
:1005500040FF0101001F01011E00191D1712003C80
:100560003C3C3C0000000000000103070F1F3F7FE0
:100570000080C0E0F0F8FCFE005EBCE2613FDD837D
:10058000C29C7E20A3FD1F41009D23BE46DB65F873
:100590008C11AF32CA57E974000000002400270014
:1005A0002A00DB40A4A62EAF2000A1C8D300408DB6
:1005B000AED580A800000000250028002B00000018
:1005C000600000000000000000000000000000E0EB
:1005D0000000000000000000000000000001E0003A
:1005E00000000000000000000000000001F000001A
:1005F000000000000000000000000003F000000008
:100600000000000000000000000007F000000000F3
:1006100000000000000000000007F80000000000DB
:1006200000000000000000000FF800000003C00000
:100630007E000001E0007F0FF800000003C000FE14
:10064000000001E000FFEFF800000003C000FE0022
:100650000001E000FFFFF800000003C000F0000010
:10066000000F007FFE7FC0000003C000F00000000C
:100670000F003FFE7FF83FF1FBCFFCFEF3BC3DEFE8
:10068000E01FFE7FFF7FFBFFDFFEFEFFBC3DEFE0D4
:100690001FC6FFFF7FFBFFDFFEFEFFBC3DEFE00F4D
:1006A000E3C7FE787BC3DE1EF0FFBC3DEF0007FF13
:1006B00087FC787BC3DE1EF0F83C3DEF0001FFFFB6
:1006C000F0007BC3C01EF0F03C3DEF0001F37FE083
:1006D0003FFBC3CFFEF0F03C3DEF0003E33F807FE4
:1006E000FBC3DFFEF0F03C3DEF0007E73C00787B0A
:1006F000C3DE1EF0F03C3DEF0007FFBE00787BC379
:10070000DE1EF0F03C3DEF0007FFFE00787BC3DE0D
:100710001EF0F03C3DEF000FFFFE007FFBFFDFFE11
:10072000F0F03FFDEFE00FFFFF007FFBFFDFFEF08B
:10073000F03FFDEFE00FF9FF003E79F9CF9EF0F0BA
:100740001F3DE7E01FF1FF00000000000000000077
:100750000000001F80FF007FFFFFFFFFFFFFFFFF84
:10076000FFE01C007F007FFFFFFFFEB46D888D1847
:10077000E000001F007FFFFFFFFE95AD7DB577E035
:1007800000000F007FFFFFFFFEA5AD9D8D19E0006B
:100790000006007FFFFFFFFEB5ADEDB57EE0000077
:1007A0000000000180000000000000000000038045
:1007B00000000000000000000007C0000000000072
:1007C0000000000007C00000000000000000000F53
:1007D000C00000000000000000001FE0000000005A
:1007E00000000000001FE00000000000000000000A
:1007F0003FE00000000000000000003FF0000000AB
:100800000000000000007FF0000000000000001F5A
:10081000F87FF0000000000000003FFE7FF00000C5
:1008200000000000003FFF7FF0000000000000001B
:100830001FFFFBE0000000000000000FFFF9FFC0F9
:100840000000000000000FFFF9FFF80000000000AA
:100850000007FFF1FFFF00000000000003FC73FF32
:10086000FF80000000000001FE3FFFFF800000004D
:10087000000000FF1E0FFF000000000000007FFED0
:100880001FFC000000000000003FFFFFF800000018
:10089000000000000FDFFFE0000000000000001F6C
:1008A00019FFC0000000000000003F3CFF000000F6
:1008B00000000000007E7CF8000000000000000046
:1008C0007FFE7C0000000000000000FFFFFC000035
:1008D000000000000000FFFFFE000000000000001C
:1008E00000FFFFFE0000000000000001FFEFFE001F
:1008F00000000000000001FFCFFE0000000000002B
:100900000003FF07FE0000000000000003FC07FEDC
:100910000000000000000003F003FE0000000000E3
:100920000000018000FE0000000000000000000048
:100930007E000000000000000000003E00000000FB
:100940000000000000000C00000000000007800014
:10095000FC000003C0000000078001FC000003C091
:10096000000000078001FC000003C00000000780B9
:1009700001E00000001E000000078001E000000010
:100980001E007FE3F79FF9FDE7787BDFC0FFF7FFED
:10099000BFFDFDFF787BDFC0FFF7FFBFFDFDFF78E8
:1009A0007BDFC0F0F787BC3DE1FF787BDE00F0F72E
:1009B00087BC3DE1F0787BDE0000F787803DE1E019
:1009C000787BDE007FF7879FFDE1E0787BDE00FF2C
:1009D000F787BFFDE1E0787BDE00F0F787BC3DE103
:1009E000E0787BDE00F0F787BC3DE1E0787BDE005D
:1009F000F0F787BC3DE1E0787BDE00FFF7FFBFFD4D
:100A0000E1E07FFBDFC0FFF7FFBFFDE1E07FFBDF41
:100A1000C07CF3F39F3DE1E03E7BCFC000000000CF
:100A200000000000000000FFFFFFFFFFFFFFFFFFCF
:100A3000FFC0FFFFFFFFFD68DB111A31C0FFFFFFA2
:100A4000FFFD2B5AFB6AEFC0FFFFFFFFFD4B5B3B37
:100A50001A33C0FFFFFFFFFD6B5BDB6AFDC00000C8
:100A60000000000000000000000000000000000086
:100A70000000000000000000000000000000000076
:100A80000000000000000000000000000000000066
:100A90000000000000000000000000000000000056
:100AA0000000000000000000000000000000000046
:100AB0000000000000000000000000000000000036
:100AC0000000003FFFFFFFFFFF800000000000006C
:100AD000000003C00F8001F0007F800000000000D4
:100AE00000003C0007C000FC00007800000000008F
:100AF0000001C00003F0007F0000040000000000BF
:100B00000006000000FC001F800004000000000040
:100B100000180000003F0007E00004000000000093
:100B200000E00018001FC001F800040000000000F1
:100B30000300003E0007F0007E00040000000000FB
:100B40000C00001F8001F8003F800400000000003E
:100B50003000000FE0007E000FC004000000000025
:100B60000C000003F0001F8003E004000000000000
:100B700003000000FC0007E000E0040000000000AB
:100B800000E000003F0003F8000004000000000047
:100B9000001800000FC000FC00000400000000006E
:100BA0000006000007F0003F000004000000000005
:100BB0000001C00001FC000FC000040000000000A4
:100BC00000003C00007E0003E00078000000000010
:100BD000000003C0001F0001F07F80000000000043
:100BE0000000003FFFFFFFFFFF800000000000004B
:100BF00000000000000000000000000000000000F5
:100C000000000000000000000000000000000000E4
:100C100000000000000000000000000000000000D4
:100C200000000000000000000000000000000000C4
:100C300000000000000000000000000000000000B4
:100C400000000000000000000000000000000000A4
:100C50000000000000000000000000000000000094
:100C60000000000000000000000000000000000084
:100C70000000000000000000000000000000000074
:100C80000000000000000000000000000000000064
:100C90000000000000000000000000000000000054
:100CA0000000000000000000000000000000000044
:100CB0000000000000000000000000000000000034
:100CC0000000003FFFFFFFFFFF800000000000006A
:100CD000000003FE0007C001F07F8000000000005C
:100CE00000003C1F0003F000FC0078000000000042
:100CF0000001C00FC001FC007F8004000000000064
:100D000000060003F0007F000FC004000000000098
:100D100000180000FC001F8003E004000000000039
:100D200000E000007F0007E000C0040000000000B9
:100D3000030000001FC001F80000040000000000D4
:100D40000C00000007E0007E00000400000000002E
:100D50003000000001F8001F8000040000000000C7
:100D60000C000000007E0007E0000400000000000E
:100D700003000030001F8003F800040000000000A2
:100D800000E0007C000FE000FE0004000000000016
:100D90000018003E0003F0003F8004000000000047
:100DA0000006001F8000FC000FC0040000000000CF
:100DB0000001C007E0003F0003E004000000000065
:100DC00000003C01F0000F8000E07800000000000F
:100DD000000003C0F80007C0007F80000000000092
:100DE0000000003FFFFFFFFFFF8000000000000049
:100DF00000000000000000000000000000000000F3
:100E000000000000000000000000000000000000E2
:100E100000000000000000000000000000000000D2
:100E200000000000000000000000000000000000C2
:100E300000000000000000000000000000000000B2
:100E400000000000000000000000000000000000A2
:100E50000000000000000000000000000000000092
:100E60000000000000000000000000000000000082
:100E70000000000000000000000000000000000072
:100E80000000000000000000000000000E00000054
:100E900007FFFFFFFFFFFFFFFFFFFFFF9E000000B8
:100EA0000FFFFFFFFFFFFFFFFFFFFFFFFE00000040
:100EB0003C0000000000000000000000FE000000F8
:100EC000700000000000000000000000DE000000D4
:100ED000E00000000000000000000000DE0000FF55
:100EE000C00000000000000000000000DE0001FF64
:100EF000000000000000000000000000DE00018093
:100F0000000000000000000000000000DE00018082
:100F1000000060E19C33F060C1F9F800DE00018060
:100F20000000F0F19E33F0F0C1F9FC00DE0001801A
:100F30000000F0F19E3300F0C1818C00DE000180E2
:100F4000000198D99B330198C1818C00DE0001809B
:100F5000000198D99B33E198C1F1F800DE000180CF
:100F600000030CCD99B3E30CC1F1F000DE00018069
:100F70000003FCCD99B303FCC1819800DE00018021
:100F80000003FCC798F303FCC1819800DE000180D8
:100F9000000606C798F3F606FDF98C00DE00018016
:100FA000000606C39873F606FDF98C00DE0001808A
:100FB000000000000000000000000000DE0001FF53
:100FC000000000000000000000000000DE0000FF44
:100FD000C00000000000000000000000DE00000073
:100FE000E00000000000000000000000DE00000043
:100FF000700000000000000000000000DE000000A3
:101000003C0000000000000000000000FE000000A6
:101010000FFFFFFFFFFFFFFFFFFFFFFFFE000000CE
:1010200007FFFFFFFFFFFFFFFFFFFFFF9E00000026
:101030000000000000000000000000000E000000A2
:1010400000000000000000000000000000000000A0
:101050000000000000000000000000000000000090
:101060000000000000000000000000000000000080
:101070000000000000000000000000000000000070
:101080000000000000000000000000000E00000052
:1010900007FFFFFFFFFFFFFFFFFFFFFF9E000000B6
:1010A0000FFFFFFFFFFFFFFFFFFFFFFFFE0000003E
:1010B0003C0000000000000000000000FE000000F6
:1010C000700000000000000000000000DE000000D2
:1010D000E00000000000000000000000DE0000FF53
:1010E000C00000000000000000000000DE0001FF62
:1010F000000000000000000000000000DE00018091
:10110000000000000000000000000000DE00018080
:1011100000000001C33F30C780000000DE000180F6
:1011200000000001E33F30CFC0000000DE0001807E
:1011300000000001E30330CC40000000DE0001802D
:1011400000000001B30630CC00000000DE0001808A
:1011500000000001B30C3FCF80000000DE000180E2
:10116000000000019B1C3FC3C0000000DE000180A6
:10117000000000018B1830C0C0000000DE000180BC
:10118000000000018F3030C8C0000000DE00018088
:1011900000000001873F30CFC0000000DE0001806A
:1011A00000000001873F30CF80000000DE0001809A
:1011B000000000000000000000000000DE0001FF51
:1011C000000000000000000000000000DE0000FF42
:1011D000C00000000000000000000000DE00000071
:1011E000E00000000000000000000000DE00000041
:1011F000700000000000000000000000DE000000A1
:101200003C0000000000000000000000FE000000A4
:101210000FFFFFFFFFFFFFFFFFFFFFFFFE000000CC
:1012200007FFFFFFFFFFFFFFFFFFFFFF9E00000024
:101230000000000000000000000000000E000000A0
:10124000000000000000000000000000000000009E
:10125000000000000000000000000000000043004B
:10126000434F4F4C444F574E3A20004375727265BE
:101270006E742073656E736F72203A200054656D32
:10128000702073656E736F72203A2000332E382EF3
:101290003000535720564552203A200043484543DA
:1012A0004B20434F494C0021204641554C542021AE
:1012B00000484549474854204F4B3F004341534560
:1012C000002026200054494D45004341534553001A
:1012D0004C4F41440044524F5050494E4700730018
:1012E0002E00412020002E00414E4E45414C494EDB
:1012F00047004F4E452053484F54004155544F200E
:101300004645454400465245452052554E0043004F
:1013100073002E0043415345533A200020004641BC
:101320004E204F4E0054494D45002200FF21000041
:101330000000080002010000030407000000000094
:10134000000000000000002300260029000404041F
:10135000040404040402020202020203030303035E
:10136000030102040810204080010204081020013B
:10137000020408102000E51EBF2A11241FBECFEF73
:10138000D8E0DEBFCDBF11E0A0E0B1E0E8E7FCE5CA
:1013900002C005900D92A236B107D9F722E0A2E66D
:1013A000B1E001C01D92A73DB207E1F719E0CCEB17
:1013B000D9E004C02197FE010E94F82CCB3BD10755
:1013C000C9F70E94861F0C942F2E0C94000080E415
:1013D00080937C0080917A00806480937A00809171
:1013E0007A0086FDFCCF8091780090917900089575
:1013F000089508950895AF92BF92CF92DF92EF9231
:10140000FF920F931F93CF93DF936C017B018B01AE
:10141000040F151FEB015E01AE18BF08C017D107FE
:1014200059F06991D601ED91FC910190F081E02D88
:10143000C6010995892B79F7C501DF91CF911F91DD
:101440000F91FF90EF90DF90CF90BF90AF900895F5
:10145000833081F028F4813099F08230A9F008952A
:101460008730A9F08830C9F08430B1F480918000D1
:101470008F7D03C0809180008F77809380000895D6
:1014800084B58F7784BD089584B58F7DFBCF80911F
:10149000B0008F778093B00008958091B0008F7D69
:1014A000F9CFCF93DF93282F30E0F901E15DFC4EB7
:1014B0008491F901EF59FC4ED491F901E35BFC4EA4
:1014C000C491CC23A1F081110E94280AEC2FF0E0F6
:1014D000EE0FFF1FED5BFC4EA591B491EC91ED2357
:1014E00081E090E009F480E0DF91CF91089580E001
:1014F00090E0FACF1F93CF93DF93282F30E0F901CC
:10150000E15DFC4E8491F901EF59FC4ED491F90153
:10151000E35BFC4EC491CC23A9F0162F81110E94ED
:10152000280AEC2FF0E0EE0FFF1FEC54FA4FA591C4
:10153000B4918FB7F894EC91111108C0D095DE23C7
:10154000DC938FBFDF91CF911F910895DE2BF8CFF1
:10155000E8E3F3E1E491E33019F140F4E130B1F074
:10156000E230C9F060E089E00C947A0AE73011F1CA
:10157000E83041F1E430B1F72091800020622093FF
:10158000800090938B0080938A00089594B59068B2
:1015900094BD87BD089594B5906294BD88BD0895AB
:1015A0002091800020682093800090938900809390
:1015B000880008959091B00090689093B000809357
:1015C000B30008959091B00090629093B000809322
:1015D000B4000895CF93DF9390E0FC01EF59FC4EE7
:1015E0002491835B9C4EFC0184918823C9F090E098
:1015F000880F991FFC01E856FA4FA591B491FC01A0
:10160000EC54FA4FC591D49161110DC09FB7F89475
:101610008C91209582238C938881282328839FBFD7
:10162000DF91CF910895623051F49FB7F8943C91C7
:10163000822F809583238C93E8812E2BEFCF8FB759
:10164000F894EC912E2B2C938FBFEACF3FB7F894F0
:1016500080911A0290911B02A0911C02B0911D0270
:1016600026B5A89B05C02F3F19F00196A11DB11DFD
:101670003FBFBA2FA92F982F8827BC01CD01620F39
:10168000711D811D911D42E0660F771F881F991FF4
:101690004A95D1F708958F929F92AF92BF92CF92C1
:1016A000DF92EF92FF926B017C010E94260B4B01AF
:1016B0005C01C114D104E104F104B9F00E94260BCD
:1016C000681979098A099B09683E7340810591056B
:1016D00080F321E0C21AD108E108F10888EE880EF3
:1016E00083E0981EA11CB11CE4CFFF90EF90DF9027
:1016F000CF90BF90AF909F908F9008952FB7F894A0
:10170000609116027091170280911802909119024F
:101710002FBF0895DC0180E0615090F09D919827E3
:10172000E92FEF70F0E0E858FA4F2491E92FE295A5
:10173000EF70F0E0E857FA4FE491822F8E27ECCF5C
:101740000895DC012C911196ED91FC91F894818122
:10175000822B81839281322F30959323928387E06D
:1017600090E00197F1F781818323818383E290E008
:101770000197F1F790817894EFECF0E03197F1F771
:10178000922381E009F480E00895FC0190810180BA
:10179000F281E02D292F209560FF14C0F8948281FA
:1017A000822382838181892B8183A3E2B0E0119718
:1017B000F1F78281982B9283789487ED90E00197DE
:1017C000F1F70895F8948281822382838181892BA5
:1017D0008183AFEFB0E01197F1F78281982B92836C
:1017E00078948FE090E0EBCFDF92EF92FF920F932F
:1017F0001F93CF93DF93EC01D62EE42E08E010E088
:10180000FF24F39461E08D2D8F2109F460E0CE0177
:101810000E94C50BFF0C01501109A1F7E11010C087
:10182000F894E981FA819181888180958923818367
:10183000E981FA81928188818095892382837894D5
:10184000DF91CF911F910F91FF90EF90DF9008955E
:10185000EF92FF920F931F93CF93DF938C017B0145
:1018600040E065E50E94F40BE70188E0E80EF11C1A
:10187000699140E0C8010E94F40BCE15DF05C1F765
:10188000DF91CF911F910F91FF90EF900895FC0190
:1018900090810180F281E02DF8948181292F20959B
:1018A0008223818378943DE743E050E0315029F171
:1018B000DA011197F1F780818923C1F3F8948281CD
:1018C000822382838181892B81837894ABE7B7E07F
:1018D0001197F1F7F894818182238183A3E1B1E02C
:1018E0001197F1F78081982381E009F080E07894E6
:1018F000E3E6F6E03197F1F7089580E00895CF929E
:10190000DF92EF92FF9280916B0290916C020E94A5
:10191000470C40E06CEC80916B0290916C020E944D
:10192000F40B4091620264E480916B0290916C022E
:101930000E94F40B80916602882309F1E091650210
:1019400080916702882301F18091620281111CC09D
:101950000E947E0B6B017C0180916B0290916C0266
:101960000E94A10B813059F00E947E0B6C197D09F9
:101970008E099F096E3E72408105910568F3FF90C4
:10198000EF90DF90CF900895E9508EEE92E0E33033
:1019900038F4F0E0EE0FFF1FE55FFE4F808191818C
:1019A0006C01990FEE08FF0880916302882329F0EB
:1019B00060E0809164020E947A0AC701B6010E9429
:1019C0004B0B809163028823D1F261E08091640225
:1019D000FF90EF90DF90CF900C947A0A6F927F92F5
:1019E0008F929F92AF92BF92CF92DF92EF92FF922F
:1019F0000F931F93CF93DF938C01EB0180916B02C8
:101A000090916C020E94470C882309F43FC0B801F2
:101A100080916B0290916C020E94280C40E06EEB6A
:101A200080916B0290916C020E94F40B7E016E011A
:101A300089E0C80ED11C8E01A0906B02B0906C02A0
:101A400088E0882E912C712C66246394C5010E9435
:101A5000A10B81117628660CE1E08E1A9108B1F78E
:101A6000F80171928F01CE16DF0631F780916B027B
:101A700090916C020E94470C813041F4F7018191F2
:101A80007F01811105C0E017F107C1F790E008C0A0
:101A900068E0CE010E948A0B91E028852813F6CFDA
:101AA000892FDF91CF911F910F91FF90EF90DF90E1
:101AB000CF90BF90AF909F908F907F906F90089540
:101AC000CF93DF93CDB7DEB729970FB6F894DEBF7B
:101AD0000FBECDBFBE016F5F7F4F0E94EE0C88230B
:101AE00031F08D818F33A9F020F48F31A1F080E0A7
:101AF00007C08F3521F08F37D1F78CE001C08BE024
:101B000029960FB6F894DEBF0FBECDBFDF91CF91FF
:101B100008958AE0F5CF89E0F3CFEF92FF920F931B
:101B20001F93CF93DF93EC01EC80FD806E157F0552
:101B30000CF070C057FF04C0240F351F50E040E088
:101B40008E819F81FA01E20FF31F8E179F071CF40D
:101B50009C01241B350B121613060CF05BC0922F50
:101B6000842F8695869586958E9DD0018F9DB00D8C
:101B700011246A0F7B1FAF8DB8A1A60FB71F477046
:101B800049F188E0841B482F682F70E0FB01E05981
:101B9000FA4FE491281708F063C0621B71092FEF18
:101BA00030E002C0359527956A95E2F7E2230130CF
:101BB000110539F0B0F10230110561F58C91E8277B
:101BC00002C08C91E82BEC93941720F12C813D817D
:101BD000A20FB31FE92FE41BE83078F002301105A3
:101BE00021F58E2F9C9190959C932C813D81A20F85
:101BF000B31F88508830B0F7E770EE2359F0F0E05B
:101C0000E859FA4FE49101301105F9F010F1023072
:101C1000110519F1DF91CF911F910F91FF90EF9076
:101C20000895E0958C91E823CECF81E00115110550
:101C300009F480E081959E2F8C932C813D81A20F29
:101C4000B31F98509830C0F7D7CF8C91E82BEC9306
:101C5000E1CFE0958C91E823FACF8C91E827F7CF7C
:101C60000130110509F4ADCFE0F20230110509F49D
:101C7000A5CFAE0DBF1DAECF0F931F93CF93DF93B4
:101C800077FF04C0260F371F70E060E0DC01149678
:101C9000CD91DC91FB01E20FF31FCE17DF071CF49F
:101CA0009E01261B370B121613064CF5FA0157FD41
:101CB0003796A3E0F595E795AA95E1F7EC9FD0015B
:101CC000ED9FB00DFC9FB00D11246A0F7B1FDC014E
:101CD0005F96ED91FC91E60FF71F4770552781E065
:101CE00090E001C0880F4A95EAF7482F01301105AE
:101CF00059F0A8F02E0F3F1F02301105E1F0DF91DF
:101D0000CF911F910F9108952E0F3F1FE217F307F8
:101D1000B1F38191DF011197842B8C93F7CF8095DC
:101D20002E0F3F1FE217F30751F39191DF01119737
:101D300098239C93F7CFE217F30709F38191DF0112
:101D4000119784278C93F7CF0F931F93FA01DC012F
:101D500056964C9156974230E9F04330A1F141300C
:101D600061F514964D915C91DA01AE1BBF0BFD013C
:101D7000E21BF30B77FD0BC0DC0116964D915C91D5
:101D80006417750724F4AB01BF010E943C0E1F913C
:101D90000F91089514964D915C91DA01A61BB70B33
:101DA000BD0161507109DC0116964D915C91DA011B
:101DB000AE1BBF0BFD01E21BF30B77FDE8CFAF01BC
:101DC0000E948D0DE4CF16964D915C91DA01A61B11
:101DD000B70BBD0161507109CDCF0F931F93FA016D
:101DE000DC0156964C9156974230A9F0433091F160
:101DF000413019F514964D915C91DA01AE1BBF0B81
:101E0000FD013197F7FD04C0AB01BF010E948D0DAC
:101E10001F910F91089514964D915C91DA01A61BC4
:101E2000B70BBD01DC0116964D915C91DA01AE1B3A
:101E3000BF0BFD013197621B730BF7FDE9CFDC018E
:101E400016964D915C91E417F50714F7AF010E94C7
:101E50003C0EDECF16964D915C91DA01A61BB70BB6
:101E6000BD01621B730BCECFFC0177FD64C0808582
:101E70009185681779070CF05EC057FD5CC08285BC
:101E80009385481759070CF056C086898230B1F007
:101E9000833029F1813041F484819581841B950B35
:101EA000AB01BC01615071092130310509F108F421
:101EB00043C02230310509F463C0089584819581BF
:101EC000DC01A61BB70BBD016150710986819781AA
:101ED000DC01A41BB50BAD0141505109E5CF868152
:101EE0009781861B970BBA01AC0141505109DCCF99
:101EF000CA0157FD0796A3E095958795AA95E1F746
:101F0000A481B5818A9F90018B9F300D9A9F300DDF
:101F10001124620F731F078CF0A1E02DE60FF71F4D
:101F20004770552721E030E001C0220F4A95EAF7BB
:101F30008081822B80830895CA0157FD079633E084
:101F4000959587953A95E1F7A481B5818A9F90018F
:101F50008B9F300D9A9F300D1124620F731F078CD9
:101F6000F0A1E02DE60FF71F4770552781E090E0C4
:101F700001C0880F4A95EAF7809590818923DACFCE
:101F8000CA0157FD079623E0959587952A95E1F7B5
:101F9000A481B5818A9F90018B9F300D9A9F300D4F
:101FA0001124620F731F078CF0A1E02DE60FF71FBD
:101FB0004770552721E030E001C0220F4A95EAF72B
:101FC00080818227B7CF08958EBD00000DB407FE33
:101FD000FDCF8EB508958CBD9DBD08950895FC017B
:101FE0006370668B8481958126813781613039F0F9
:101FF000633029F09187808733872287089531875E
:1020000020879387828708952F923F924F925F9205
:102010006F927F928F929F92AF92BF92CF92DF92F8
:10202000EF92FF920F931F93CF93DF93CDB7DEB75D
:102030006A970FB6F894DEBF0FBECDBF9A8F898F17
:102040007A8369834A01D22E18870F833701BC2C0B
:10205000DC0159962D913C915A972115310509F0D3
:1020600015C118968D919C911997681779070CF0F6
:10207000D7C11A968D919C91481759070CF0D0C181
:102080004C2C512CB6E0CB9E600D711D11247C8729
:102090006B87161617060CF0C3C1EA2DF0E0FA871D
:1020A000E98793E0EE0FFF1F9A95E1F7F88BEF8732
:1020B000CF01840F951F181619060CF0B1C1A98D18
:1020C000BA8D58968C91811104C0BFEABD1508F4F1
:1020D000D394A98DBA8DED91FC9111970284F3856B
:1020E000E02DCD010995B5E0DB9EC0011124E98109
:1020F000FA81FC83EB83312C212C9C0128593F4F22
:10210000388F2F8B4A2D50E05E8B4D8BEF89F88DE9
:10211000E20DF31D44919E828D82D12CC12C6981E8
:102120007A81620D731D7A8B698B842F90E09C8B72
:102130008B8BE98DFA8DA081B18140FF82C0F1E0E7
:10214000BF126FC0AF126DC01C96ED91FC912F8134
:102150003885A4014C0D5D1D69897A89898D9A8D18
:102160000995EB89FC89F595E7954E2F5FEFC51A28
:10217000D50A6D817E818D899E89680F791F7E8346
:102180006D8398E0C916D10481F6AFEF2A1A3A0A96
:10219000EB81FC81E40DF51DFC83EB83F5E02F164C
:1021A000310409F0B3CF2F81388526153705B9F0F2
:1021B000A98DBA8DED91FC91B1E0BB1257C0AB1265
:1021C00055C069817A816B5F7F4F0088F189E02D6E
:1021D000830128E030E0A401898D9A8D0995A98DAD
:1021E000BA8DED91FC9111970688F789E02DCD010C
:1021F0006A960FB6F894DEBF0FBECDBFDF91CF91C8
:102200001F910F91FF90EF90DF90CF90BF90AF9014
:102210009F908F907F906F905F904F903F902F9006
:1022200009941E96ED91FC91EF80F88409851A853A
:1022300092014D815E816B817C81898D9A8D09959A
:1022400090CF2F8138852615370509F48ACF31E0E4
:10225000B31207C0A31205C01C96ED91FC91930127
:1022600078CF1E96ED91FC917301E0CF6B857C8554
:10227000641975090684F785E02D73010F851889A7
:102280009201A401898D9A8D0995A9CFF9013496FF
:102290009491329745915491D91AB7E0DB9E400D45
:1022A000511D1124F901259134913C8B2B8BFA019E
:1022B00025903490FA013296749031963491398B8E
:1022C000329664903196449041E04C1518F04A15CE
:1022D00008F07FC0662D062C000C770B7C836B8387
:1022E000842D042C000C990B9E838D83A98DBA8DAF
:1022F000ED91FC9111970284F385E02DCD010995B4
:10230000512CD12CC12CEA2DF0E0FA87E9872B2D36
:1023100030E03C872B87A401440D511D47FC5A95A2
:10232000588F4F8B69817A81660D711D67FC7A9594
:102330007E876D877989C71608F051CF2C2D30E044
:102340004D815E81420F531FA985BA854A9FC00106
:102350004B9F900D5A9F900D1124FC01E80DF91D23
:10236000F88BEF87852D612C4F89588D420F531FB5
:102370005E8B4D8B671408F050C044244394480E84
:10238000877041F4C1010196EB89FC89E20DF31DD0
:10239000D4901C01D7FE19C0A98DBA8DED91FC9186
:1023A000662D70E0B1E0BB1219C0AB1217C02D85CD
:1023B0003E85620F731F0484F585E02D2F813885DB
:1023C0004D895E89898D9A8D0995DD0C6394842DE4
:1023D000D1CF1E821D821C821B8288CF4B815C81E3
:1023E000640F751FAB85BC856A9FC0016B9F900D04
:1023F0007A9F900D112469817A81680F791F068474
:10240000F785E02DEF80F88409851A859D014F85B9
:102410005889898D9A8D0995D8CF570CC3948ACF46
:102420006A960FB6F894DEBF0FBECDBFDF91CF9195
:102430001F910F91FF90EF90DF90CF90BF90AF90E2
:102440009F908F907F906F905F904F903F902F90D4
:1024500008958F929F92AF92CF92EF92FF920F9337
:102460001F93CF93DF93EC01262F898D9A8D0097D0
:1024700009F051C06A30D1F41D861C868D8948E070
:10248000849F900111248E859F85820F931F9F87C3
:102490008E8781E090E0DF91CF911F910F91FF90A7
:1024A000EF90CF90AF909F908F9008956D3089F30B
:1024B000CC88AD888F898823C1F08C859D8536E0D6
:1024C000C39E800D911D11244885598548175907D1
:1024D00064F44E855F851D861C8638E0A39EC0018E
:1024E0001124840F951F9F878E87EA88FB880889AF
:1024F00019894E855F856C857D85CE010E9404100B
:102500002C898C859D8546E0249F800D911D11248A
:102510009D878C87BECF6A3069F41D861C86FC01BE
:102520003896E4912D898E859F85E29F800D911DBF
:102530001124ADCF6D3009F4ACCFFC013496349149
:10254000631708F4A6CF3296E491E61708F4A1CFFA
:10255000FC01329685909490462F431B342F47E020
:10256000349F800C911C1124F401329634913196E1
:10257000E4913323A9F1EE2399F1CC88F401359647
:10258000E491AD884F89442301F10E2E000CFF0B1E
:10259000E30FF11DCE9EA001CF9E500D11246C853E
:1025A0007D85460F571F68857985641775076CF41C
:1025B0004E855F851D861C86FC013896E491AE9E93
:1025C000400D511D11245F874E87EA88FB880889DA
:1025D00019894E855F856C857D85CE010E9404102A
:1025E000F4013496E4912C898C859D85E29F800DC1
:1025F000911D11248DCF0F931F93CF93DF938C01E7
:10260000D0E0C0E0F801EC0FFD1F6491662341F0BB
:1026100083E992E00E942912892B11F02196F2CFD2
:10262000CE01DF91CF911F910F910895682F83E91B
:1026300092E00C9429126F927F928F929F92AF92A8
:10264000BF92CF92DF92EF92FF920F931F93CF939F
:10265000DF93EC016B015A0139014801E881F981EE
:102660000284F385E02D0995E881F9810288F389D8
:10267000E02D87019301A501B601CE010995A501C1
:10268000480D591D41505109E881F9810288F389AB
:10269000E02D9301B601CE010995E881F98100880A
:1026A000F189E02D9401A501B601CE010995C60C72
:1026B000D71CB60161507109E881F9810088F18960
:1026C000E02D9401A501CE010995E881F9810688E4
:1026D000F789E02DCE01DF91CF911F910F91FF90EF
:1026E000EF90DF90CF90BF90AF909F908F907F90B2
:1026F0006F9009946F927F928F929F92AF92BF9248
:10270000CF92DF92EF92FF920F931F93CF93DF93BD
:102710005C01EB016A01490138018701DC01ED919F
:10272000FC916217730719F5641675062CF0962D47
:10273000872D3A01C92ED82E9601261937092F5F09
:102740003F4F048CF58DE02DA301BE01C501099515
:10275000DF91CF911F910F91FF90EF90DF90CF907D
:10276000BF90AF909F908F907F906F900895461587
:10277000570591F42617370724F0892D4B01C22FF6
:10278000D82F9E01281939092F5F3F4F068CF78DEE
:10279000E02DA601B401DACF0284F385E02D09957E
:1027A000D501ED91FC910488F589E02D8301940118
:1027B000A601BE01C5010995D501ED91FC910688E0
:1027C000F789E02DC501DF91CF911F910F91FF9007
:1027D000EF90DF90CF90BF90AF909F908F907F90C1
:1027E0006F900994EF92FF920F931F93DC011A965A
:1027F0000D911C911B9718962D913C911997ED9175
:10280000FC9100A0F1A1E02D7B0150E040E070E0E0
:1028100060E009951F910F91FF90EF9008954F92FE
:102820005F926F927F928F929F92AF92BF92CF9260
:10283000DF92EF92FF920F931F93CF93DF936C0180
:102840002B015A0139014801DC01ED91FC91028410
:10285000F385E02D0995E201640C751CD601ED911C
:10286000FC91C615D7055CF40088F189E02D87013D
:102870009401A501BE01C60109952196EFCF0688F6
:10288000F789E02DC601DF91CF911F910F91FF9045
:10289000EF90DF90CF90BF90AF909F908F907F9000
:1028A0006F905F904F9009948F929F92AF92BF92DA
:1028B000CF92DF92EF92FF920F931F93CF93DF930C
:1028C000EC015B014A016901E881F9810284F38529
:1028D000E02D099595012C0D3D1D21503109E88110
:1028E000F9810488F589E02D78018401A401B501FE
:1028F000CE010995E881F9810688F789E02DCE019E
:10290000DF91CF911F910F91FF90EF90DF90CF90CB
:10291000BF90AF909F908F9009948F929F92AF92AB
:10292000BF92CF92DF92EF92FF920F931F93CF93BC
:10293000DF93EC015B014A0169017801E881F981CB
:102940000284F385E02D0995C80CD91C860101503D
:102950001109E881F9810488F589E02D9501A40128
:10296000B501CE010995E881F9810688F789E02D46
:10297000CE01DF91CF911F910F91FF90EF90DF90EB
:10298000CF90BF90AF909F908F900994EF92FF925D
:102990000F931F93DC01ED91FC9100A0F1A1E02DBC
:1029A00009951F910F91FF90EF9008950F931F933A
:1029B000DC01ED91FC91068CF78DE02D09951F91BE
:1029C0000F9108950F931F93DC01ED91FC91048CFE
:1029D000F58DE02D09951F910F910895DC01ED9182
:1029E000FC910084F185E02D09943F924F925F9213
:1029F0006F927F928F929F92AF92BF92CF92DF920F
:102A0000EF92FF920F931F93CF93DF9300D000D0EC
:102A1000CDB7DEB75C013B016A014901280187E0BF
:102A2000480E511C93E0559447949A95E1F7CA01DA
:102A30008E0D9F1D9A838983F12CE12C312C1C82F1
:102A40001B828B819C8187709927330C892B61F4C1
:102A5000EB81FC8183E0F595E7958A95E1F7EE0D32
:102A6000FF1DE80DF91D349037FE0AC021E030E06B
:102A7000A6016B817C81660D771DC5010E94EE1455
:102A80008B819C8101969C838B8308171907C9F65B
:102A90009FEFC91AD90AE40CF51C89819A81C816DE
:102AA000D90669F60F900F900F900F90DF91CF919C
:102AB0001F910F91FF90EF90DF90CF90BF90AF905C
:102AC0009F908F907F906F905F904F903F90089570
:102AD0002F923F924F925F926F927F928F929F922E
:102AE000AF92BF92CF92DF92EF92FF920F931F931C
:102AF000CF93DF9300D000D000D0CDB7DEB73C013C
:102B00006A013E832D83FC82EB825801A41AB50A28
:102B1000B7FE03C0B194A194B1088D809E80861A3F
:102B2000970A97FE03C09194819491088A149B049C
:102B30005CF0902F812F0D811E819D838E839C2DB3
:102B40008D2D6B01692F782F0C151D055CF09D8173
:102B50008E817E836D83692F782F902F812F860140
:102B6000C92ED82E1601201A310A2B012D813E8143
:102B7000421A530A57FE03C05194419451087101FF
:102B800037FE03C03FEFE31AF30AF594E7948D8113
:102B90009E81861797075CF5A1E0B0E0BA83A98310
:102BA000C016D1064CF1D301ED91FC910484F5855A
:102BB000E02D2B813C81A8016D817E818A149B04CC
:102BC0001CF04D815E81B801C3010995E418F50838
:102BD000F7FE0AC02D813E8189819A81280F391F15
:102BE0003E832D83E20CF31C0F5F1F4FD9CF2FEFD5
:102BF0003FEF3A832983D4CF26960FB6F894DEBFF1
:102C00000FBECDBFDF91CF911F910F91FF90EF903D
:102C1000DF90CF90BF90AF909F908F907F906F90FC
:102C20005F904F903F902F90089508952091CB0191
:102C3000260F3327331F21323105ECF42091EF01A9
:102C4000FC0190E080E0243069F082E00895A091DA
:102C5000CB012191AC0145555E4FA40FB52FB11D9D
:102C60002C930196861798F38091CB01680F60939F
:102C7000CB0180E0089581E008951092EF0181E09A
:102C80008093F1011092F00161E082E10E947A0AE2
:102C900061E083E10E947A0AE9EBF0E080818E7FB7
:102CA000808380818D7F808388E48093B80085E471
:102CB0008093BC000895CF93DF9391E09093AA0195
:102CC0008823B9F0C091B800D091BA008091BC00BF
:102CD0008A7B8093BC0060E082E10E947A0A60E017
:102CE00083E10E947A0A0E943D16D093BA00C093F5
:102CF000B800DF91CF910895E091240280912302E2
:102D0000E81730F4F0E0EB57FE4F808190E0089533
:102D10008FEF9FEF089590912402809123022FEF6F
:102D20003FEF981748F4E92FF0E0EB57FE4F208172
:102D300030E09F5F90932402C9010895809123029F
:102D400090912402891B990B0895CF92DF92EF9204
:102D5000FF920F931F93CF93DF937C01CB018A01E6
:102D600020916102222389F0EB016B01C40ED51E74
:102D7000CC15DD0569F06991D701ED91FC910190C9
:102D8000F081E02DC7010995F3CF642F0E9416163C
:102D9000C801DF91CF911F910F91FF90EF90DF90CD
:102DA000CF900895CF93DF931F92CDB7DEB769839D
:102DB000209161022223F9F020915E02203258F026
:102DC00021E030E0FC013383228390E080E00F902B
:102DD000DF91CF91089580915F02E82FF0E0EB59E9
:102DE000FE4F998190838F5F80935F0280935E0294
:102DF00081E090E0ECCF61E0CE0101960E941616D2
:102E0000F7CFCF92DF92EF92FF920F931F93CF9362
:102E1000DF93D0915E0281E0D13208F09CC0C09176
:102E200060020E94260B6B017C018091EF018111F1
:102E30006CC082E08093EF0181E08093F1018FEF1D
:102E40008093EE0110921302D0931202A5E6B1E036
:102E5000E2EFF1E080E0D8138DC01092140280916F
:102E60001402CC0FC82BC09314028091F001813062
:102E700009F084C01092F0010E94260B6B017C01C6
:102E8000809114028093BB008091A6019091A701CC
:102E9000A091A801B091A901892B8A2B8B2BA1F0BD
:102EA0000E94260B0091A6011091A7012091A80174
:102EB0003091A9016C197D098E099F090617170722
:102EC0002807390708F442C08091BC0083FDD8CFA1
:102ED00085EC8093BC000E94260B6B017C018091E5
:102EE000EF01823009F44CC08091EE018F3F09F46C
:102EF00069C08091EE01803209F466C08091EE01D4
:102F0000803309F463C084E026C08091A6019091CB
:102F1000A701A091A801B091A901892B8A2B8B2B25
:102F200009F483CF0E94260B0091A6011091A701FE
:102F30002091A8013091A9016C197D098E099F0982
:102F4000061717072807390708F06FCF8091A501EA
:102F50000E945B1685E010925F0210925E02109252
:102F60006102DF91CF911F910F91FF90EF90DF9061
:102F7000CF9008959D9191938F5F6DCF85EEA9CFEE
:102F80008091A6019091A701A091A801B091A901FB
:102F9000892B8A2B8B2B09F4A2CF0E94260B009140
:102FA000A6011091A7012091A8013091A9016C19E7
:102FB0007D098E099F09061717072807390708F0AA
:102FC0008ECFC4CF80E0C7CF82E0C5CF83E0C3CF30
:102FD000EF92FF920F931F93CF93DF937C01C62F45
:102FE0008091B0029091B102009709F459C02091EC
:102FF000B40231E0309361022093600210925F02CC
:1030000010925E02DC01ED91FC910190F081E02DC7
:1030100060E009958701EE24E394F12CD1E0C150E2
:103020008091B0029091B102CF3F91F1B0E2EB16E6
:10303000F104D8F00E9401178091B0029091B10282
:103040002091B402D09361022093600210925F023B
:1030500010925E02DC01ED91FC910190F081E02D77
:1030600060E00995EE24E394F12C8091B0029091F8
:10307000B102F8016491DC01ED91FC910190F081C5
:10308000E02D0995BFEFEB1AFB0A0F5F1F4FC7CF6B
:10309000DF91CF911F910F91FF90EF900C9401174A
:1030A000E091C002F091C10290818091C6028095AA
:1030B000892380838701C15008F438C0F8018491C6
:1030C0002091AE023091AF02232B29F00E94E40F31
:1030D0000F5F1F4FF0CF28E030E040E8E091BC02E6
:1030E000F091BD029091C402582F5423D9F0508121
:1030F000952B9083E091BE02F091BF029081509198
:10310000C502952B9083E091BE02F091BF025081E1
:103110009091C50290959523908346952150310951
:10312000E9F6D6CF508190959523E3CFDF91CF91EB
:103130001F910F91FF90EF9008951F93CF93DF930E
:10314000EC018D8D9E8D009721F1162F29A131E084
:10315000309361022093600210925F0210925E022F
:10316000DC01ED91FC910190F081E02D60E009958A
:103170008D8D9E8DDC01ED91FC910190F081E02D13
:10318000612F09958D8D9E8DDF91CF911F910C94AC
:103190000117ADA5BEA59C918BA9809589238C9321
:1031A0008B8D9C8D892B31F0862FDF91CF911F91D4
:1031B0000C94E40F28E030E080E8A9A5BAA599A90D
:1031C000462F4823C1F04C91942B9C93ABA5BCA5F2
:1031D0009C914AA9942B9C93ABA5BCA54C919AA910
:1031E000909594239C9386952150310931F7DF9176
:1031F000CF911F9108954C9190959423E6CFDF9243
:10320000EF92FF920F931F93CF93DF938091B002C1
:103210009091B102892B09F498C02091C802309195
:10322000C9024091CA025091CB0260E074E284EF7F
:1032300090E00E94D62C2051310941095109569540
:103240004795379527952093B80065E08AE293E18A
:103250000E94E81760919702615083E992E00E9412
:103260009D182091990230919A02C901079697FD05
:10327000079633E0959587953A95E1F72091970267
:1032800030919802829F8001839F100D929F100DB4
:103290001124C091B202D091B3028091B0029091FA
:1032A000B1020C0F1D1F009709F48FC02091B402CA
:1032B00031E0309361022093600210925F0210921D
:1032C0005E02DC01ED91FC910190F081E02D60E463
:1032D0000995EE24E394F12CDD24D3948091B0027F
:1032E0009091B1020C171D0709F446C0B0E2EB162D
:1032F000F104D8F00E9401178091B0029091B102C0
:103300002091B402D09261022093600210925F0279
:1033100010925E02DC01ED91FC910190F081E02DB4
:1033200060E40995EE24E394F12C8091B002909131
:10333000B1026991DC01ED91FC910190F081E02DE9
:103340000995BFEFEB1AFB0AC9CF8091AE029091AD
:10335000AF02892B31F08091D1029091D2020E946C
:10336000EB0FE091C202F091C30290818091C702FD
:1033700080958923808369CF0E9401178091B002D4
:103380009091B102892B09F461C02091CC02309157
:10339000CD024091CE025091CF0260E074E284EF02
:1033A00090E00E94D62C20513109410951095695CF
:1033B0004795379527952093B800DF91CF911F91BE
:1033C0000F91FF90EF90DF900895E091C002F0918F
:1033D000C10280819091C602892B80830C171D0742
:1033E00069F289912091AE023091AF02232B19F03E
:1033F0000E94E40FF3CF28E030E040E8E091BC0207
:10340000F091BD029091C402582F5423D9F05081FD
:10341000952B9083E091BE02F091BF029081509174
:10342000C502952B9083E091BE02F091BF025081BE
:103430009091C5029095952390834695215031092E
:10344000E9F6CCCF508190959523E3CFE091C2026D
:10345000F091C30280819091C702892B8083ADCF08
:103460001F93CF93DF93EC01162F8D8D9E8D892BAB
:10347000B1F12DA93EA94FA958AD60E074E284EFE7
:1034800090E00E94D62C20513109410951095695EE
:103490004795379527952093B80066EA111167EA9A
:1034A000CE010E949D188D8D9E8D892B41F129ADF5
:1034B0003AAD4BAD5CAD60E074E284EF90E00E9409
:1034C000D62C205131094109510956954795379518
:1034D00027952093B800DF91CF911F9108958B8D90
:1034E0009C8D892B21F08EAD9FAD0E94EB0FEFA537
:1034F000F8A990818CA9809589238083CECFEFA5F0
:10350000F8A980819CA9892B8083E5CF90E080E099
:10351000089520916301309164012115310541F036
:1035200080E89CE0821B930B9093300280932F02E3
:1035300008950E94E70920912D0230912E0228174C
:10354000390771F0AC01421B530B9A0141E3429FD2
:10355000C001439F900D1124893A51E6950710F060
:1035600090E080E0089560E084E00C947A0A60E0E6
:1035700086E00C947A0A81E04091000150910101AB
:1035800020910301309104014217530709F480E0B0
:10359000089520910301309104013093010120939B
:1035A000000190930401809303010895BF92CF928C
:1035B000DF92EF92FF920F931F93CF93DF93EC0173
:1035C000B62EC72E8D85811105C0CE010E94470CF5
:1035D00081110EC01B861D861C8680E0DF91CF9175
:1035E0001F910F91FF90EF90DF90CF90BF900895C3
:1035F00040E060EFCE010E94F40B01E0E12CD12C01
:1036000011E0CE010E94A10BF82ECE010E94A10B69
:1036100091E0F91218C0813099F51134D8F2DB86A7
:10362000D11002C081E08D878B81882399F2239687
:10363000EB2DFC2DCF01089629912193E817F9076E
:10364000D9F781E0CBCFEE2DF0E0F8120FC08B85DB
:103650001817A0F4DE01AE0FBF1F13968C918023C4
:1036600079F4F12C193008F41C87D12EEC0FFD1FD2
:103670008381902F9095892383830AC08113F1CF92
:10368000FE01EE0DF11D8381802B8383FF24F394D3
:103690006F2DCE010E94C50B1F5F000F11F4E39444
:1036A00001E087E08E1508F0ACCFB7CFFF920F9303
:1036B0001F93CF93DF938C01F62EE0916B02F09174
:1036C0006C02138615861486128611861086178260
:1036D0001682158214821382C0E0B80180916B02B9
:1036E00090916C020E94D61AD82F882329F0FC16DC
:1036F00029F0CF5FFC1688F7D0E008C067E0C8016A
:103700000E948A0BF80197818913F3CF8D2FDF91E7
:10371000CF911F910F91FF90089561E089E00E9481
:10372000EA0A8FE090E00E94A80A60E08AE00C9428
:103730007A0A2091990230919A02C901079697FD61
:10374000079623E0959587952A95E1F720919702B2
:1037500030919802829FA001839F500D929F500D3F
:10376000112470E060E08091B2029091B3020C9459
:10377000282EFC0101900020E9F73197AF01481B8A
:10378000590BBC0183E992E00C94FB098F929F9244
:10379000AF92BF920F931F93CF93DF93CDB7DEB756
:1037A000A1970FB6F894DEBF0FBECDBF19A242306D
:1037B00008F44AE08E010F5D1F4F842E912CB12C2E
:1037C000A12CA50194010E94D62CE62FB901CA01B3
:1037D000EA30F4F4E05DD801EE938D01232B242B25
:1037E000252B79F790E080E0109719F0CD010E9429
:1037F000B91BA1960FB6F894DEBF0FBECDBFDF9107
:10380000CF911F910F91BF90AF909F908F9008958F
:10381000E95CE1CF8F929F92AF92BF92CF92DF92FD
:10382000EF92FF92CF93DF936B017C01AC019B0180
:103830000E94A92C882371F08FE491E0DF91CF9151
:10384000FF90EF90DF90CF90BF90AF909F908F90C0
:103850000C94B91B46015701E894B7F82FEF3FEFDE
:103860004FE75FE7C501B4010E94A92C81110DC08B
:103870002FEF3FEF4FE75FE7C501B4010E94512BE7
:1038800018161CF483E591E0D9CF2FEF3FEF4FE7F7
:103890005FE4C701B6010E94372C18161CF487E5B7
:1038A00091E0CCCF2FEF3FEF4FE75FECC701B601C0
:1038B0000E94512B87FDF3CF20E030E0A901C70122
:1038C000B6010E94512BD0E0C0E087FF08C08DE216
:1038D0000E941613EC01F7FAF094F7F8F0942DEC2F
:1038E0003CEC4CE45DE3C701B6010E94E52A4B01C4
:1038F0005C010E94562B6B017C010E94852B9B0171
:10390000AC01C501B4010E94E42A4B015C014AE00C
:10391000C701B6010E94C61BC80FD91F8EE20E94C4
:103920001613C80FD91F20E030E040E251E4C50172
:10393000B4010E943C2C0E94562B90E080E04AE0AB
:103940000E94C61B8C0F9D1FDF91CF91FF90EF90BF
:10395000DF90CF90BF90AF909F908F900895CF93BE
:10396000DF930E94FB12EC018BE591E00E94B91BF2
:103970008C0F9D1FDF91CF9108950E94232E85ED1E
:103980008093BC008091A6019091A701A091A8010D
:10399000B091A9010796A11DB11D23E0B695A79589
:1039A000979587952A95D1F72091BC0024FD03C0F7
:1039B0001092EF0108954091A6015091A7016091E6
:1039C000A8017091A901452B462B472B69F300975D
:1039D000A105B10541F025E32A95F1F70000019713
:1039E000A109B109E1CF8091A5010C945B161F924A
:1039F0000F920FB60F9211242F933F938F939F93A3
:103A0000AF93BF938091160290911702A091180274
:103A1000B09119023091150223E0230F2D3758F58C
:103A20000196A11DB11D209315028093160290935B
:103A30001702A0931802B093190280911A02909174
:103A40001B02A0911C02B0911D020196A11DB11D87
:103A500080931A0290931B02A0931C02B0931D0244
:103A6000BF91AF919F918F913F912F910F900FBE7A
:103A70000F901F90189526E8230F0296A11DB11DE7
:103A8000D2CF1F920F920FB60F9211242F933F9314
:103A90004F935F936F937F938F939F93AF93BF9356
:103AA000EF93FF938091B900887F803609F44AC074
:103AB000F0F5883209F4A7C018F5803109F49BC0ED
:103AC000B8F4882309F4F9C0883009F494C0FF9150
:103AD000EF91BF91AF919F918F917F916F915F9186
:103AE0004F913F912F910F900FBE0F901F901895FF
:103AF000883109F488C0803251F78093EE0114C0F8
:103B0000803409F49DC040F48033B9F38833F9F66A
:103B10008093EE0185ECB0C0803509F485C088350E
:103B200009F496C0883499F60E94BF1CD0CF88391A
:103B300009F48CC038F5883729F050F4883611F034
:103B4000803729F683E08093EF011092ED0157C092
:103B5000883809F47BC0803919F0803809F0B7CF74
:103B60008091ED01803208F071C0E091ED0181E0BB
:103B70008E0F8093ED018091BB00F0E0E353FE4F88
:103B800080833DC0803B39F0E0F4803A09F479C08D
:103B9000883A09F09CCF84E08093EF011092CC0129
:103BA0001092CB01E0912102F091220209958091BF
:103BB000CB0181110FC081E08093CB011092AB014A
:103BC00009C0803C09F4A6CF883C09F4A3CF883B08
:103BD00009F07DCFE091CC0181E08E0F8093CC0184
:103BE000F0E0E555FE4F80818093BB009091CC01C1
:103BF0008091CB0129C0809114028093BB0085EC99
:103C00008093BC0064CF90911302809112029817A8
:103C100058F5E091130281E08E0F80931302F0E0DB
:103C2000EE50FE4F8081E9CFE091130281E08E0FCC
:103C3000809313028091BB00F0E0EE50FE4F808332
:103C400090911302809112029817C8F285E8D8CF9C
:103C5000E091130281E08E0F809313028091BB00EC
:103C6000F0E0EE50FE4F80838091F10181115CCF36
:103C700081E08093F00184EA8093BC001092EF0110
:103C800026CF85EC8093BC001092EF018091ED016E
:103C9000803230F4E091ED01F0E0E353FE4F10820A
:103CA0006091ED0170E0E0911F02F09120028DEC37
:103CB00091E009951092ED010ACF1092EE0134CFF8
:103CC0001F920F920FB60F9211240F931F932F93F1
:103CD0003F934F935F936F937F938F939F93AF9394
:103CE000BF93EF93FF9380912F0290913002892B25
:103CF00009F463C080916201882309F45EC061E029
:103D00008CE00E947A0A1092620180916301909186
:103D10006401019680382CE0920708F442C01092AA
:103D20006401109263018091630190916401803677
:103D300024E09207D8F587E08093B30080912F02AA
:103D40009091300201979093300280932F028091DE
:103D5000030190910401029789F40E947E0B009167
:103D600036021091370220913802309139026017E3
:103D700071078207930710F00E94B71AFF91EF9125
:103D8000BF91AF919F918F917F916F915F914F9173
:103D90003F912F911F910F910F900FBE0F901F9089
:103DA00018959093640180936301BDCF8032984051
:103DB00010F482E3C1CF8AE0BFCF60E08CE00E94C4
:103DC0007A0A81E080936201C2CFCF93A7E8B2E084
:103DD00013961C921E92129748EE53E060E070E03A
:103DE00014964D935D936D937C93179785E191E0C5
:103DF00011969C938E93E3E9F2E01382128220E8FD
:103E000030E03583248380E290E097838683318796
:103E1000208793878287168A1586148617861686CA
:103E2000C1E0C58BC48B8FEF9FEF938B828B918BFF
:103E3000808BC78B108E128E118E87E291E091835A
:103E40008083148E138EB68FA58F10A2178E8FEFDE
:103E500084A385A386A387A380A780E49DE0A3E035
:103E6000B0E085AB96ABA7ABB0AF81AF92AFA3AFDD
:103E7000B4AF80E586AF17AE60E088E00E94EA0A42
:103E8000E9E6F3E1E491A9E7B2E0EC93E5E5F3E1DB
:103E9000E491F0E0EE0FFF1FED5BFC4E85919491F5
:103EA00012969C938E9311971B961C921B971D96AE
:103EB0001C921D971C961C921C971A961C921A977E
:103EC00019961C92199718961C92189717961C927F
:103ED000179716961C92169715961C92159714967E
:103EE0001C92149713961C921397E2E6F2E0168A3E
:103EF000158A1182B287A18717821086108289E005
:103F00008383C483C583C683CF910895CF93DF9302
:103F1000CDB7DEB761970FB6F894DEBF0FBECDBF49
:103F2000789484B5826084BD84B5816084BD85B594
:103F3000826085BD85B5816085BD80916E008160A0
:103F400080936E0010928100809181008260809346
:103F50008100809181008160809381008091800048
:103F60008160809380008091B10084608093B10073
:103F70008091B00081608093B00080917A0084606D
:103F800080937A0080917A00826080937A00809199
:103F90007A00816080937A0080917A0080688093B3
:103FA0007A001092C10080918100887F85608093A3
:103FB00081001092B0001092B1001092B2008AE01D
:103FC0008093B3008091B00082608093B0008091B4
:103FD000B10084608093B1008091B10082608093D1
:103FE000B1008091700082608093700062E082E096
:103FF0000E94EA0A62E083E00E94EA0A62E080E14D
:104000000E94EA0A61E086E00E94EA0A61E084E038
:104010000E94EA0A61E08BE00E94EA0A61E087E020
:104020000E94EA0A61E08AE00E94EA0A61E089E00F
:104030000E94EA0A61E08CE00E94EA0A61E08DE0F9
:104040000E94EA0A61E085E00E94EA0A61E08DE0F0
:104050000E947A0A60E085E00E947A0A0E948D1B25
:104060000E94B31A60E08BE00E947A0A0E94B71A9D
:1040700060E087E00E947A0A0E948D1B68EC70E085
:1040800080E090E00E944B0B8091B2029091B302CD
:10409000892B39F10E94991B8091990290919A0283
:1040A0006091970270919802813291050CF02AC1BB
:1040B000AC014052510957FF02C04F5F5F4F559509
:1040C00047956357710977FF02C06F5F7F4F759502
:1040D0006795F0E2EF2EF12C03E710E02EEB35E0D0
:1040E00029C12091990230919A02C901079697FD42
:1040F000079623E0959587952A95E1F720919702F9
:1041000030919802AC01429FC001439F900D529F95
:10411000900D11240E94FE2C9093B3028093B20262
:10412000892B09F0B7CF0E94991B82E08093A702E8
:104130008093A80281E090E09093A6028093A5026C
:104140009093A4028093A3021092A00210929F0267
:104150001092A2021092A10230E2E32EF12C00E8AC
:1041600010E02EE530E150E040E070E060E083E9EF
:1041700092E00E94F5140E94FF1860ED77E080E065
:1041800090E00E944B0B0E94991B2EE53EE050E010
:1041900040E070E060E083E992E00E94F5140E9444
:1041A000FF1860ED77E080E090E00E944B0B45E166
:1041B000D42E0E94991B20E2E22EF12C00E810E0A0
:1041C0002EE53CE050E040E070E060E083E992E002
:1041D0000E94F5140E94FF1864E670E080E090E011
:1041E0000E944B0B0E94991B2EE53AE050E040E004
:1041F00070E060E083E992E00E94F5140E94FF18ED
:1042000064E670E080E090E00E944B0BDA94D110FD
:10421000D0CF0E94991BE0916B02F0916C02138643
:1042200015861486128611861086178216821582CC
:10423000148213821092690210926A0211E0BE0188
:104240006F5F7F4F80916B0290916C020E94D61A33
:10425000882309F45BC267E0CE0101960E948A0BB5
:1042600098858913ECCF809169028F5F80936902F2
:104270008981883231F008F040C2803111F08232F9
:10428000F1F680916A028F5F80936A0280916202E8
:10429000811128C080916B0290916C020E94470CA2
:1042A000BE016F5F7F4F80916B0290916C020E9404
:1042B000280C40E064EB80916B0290916C020E94AC
:1042C000F40B80916B0290916C020E94A10B082F5D
:1042D00080916B0290916C020E94470C011102C008
:1042E000109362028981803109F40EC2CE010196D9
:1042F0000E94600D90916502981708F0A0CF8093FE
:1043000065029DCFAC014054510957FF02C04F5F79
:104310005F4F559547956255710977FF02C06F5FF2
:104320007F4F7595679510E4E12EF12C02E510E0C2
:104330002EE937E083E992E00E94F51482E0809351
:10434000B5028091B0029091B102892B09F4DFC0CF
:104350008CE38093B40210922402109223021092F4
:104360005F0210925E020E943D1689EF99E09093E1
:104370002202809321028AEF99E090932002809399
:104380001F028091BB0287FD1EC061E00E94EA0A05
:1043900061E08091BB020E947A0A61E070E080E0F7
:1043A00090E00E944B0B60E08091BB020E947A0A71
:1043B0006AE070E080E090E00E944B0B61E0809149
:1043C000BB020E947A0A8091B0029091B102892BBF
:1043D00009F45CC12091C8023091C9024091CA021F
:1043E0005091CB0260E074E284EF90E00E94D62C02
:1043F000205131094109510956954795379527951F
:104400002093B80064E080EB95E00E94E81760918B
:104410009902615083E992E00E949D1864E08CEA61
:1044200095E00E94E8178091B50260E1813009F0C3
:1044300064E183E992E00E949D1864E088EA95E0D7
:104440000E94E8178FE88093D002809197029091A4
:1044500098028038910509F032C1809199029091BB
:104460009A028034910509F03AC18091B5028130F9
:1044700009F023C18FE98093D00212E16AED83E94C
:1044800092E00E949D18612F83E992E00E949D189E
:1044900061E883E992E00E949D186091D00283E96F
:1044A00092E00E949D1869ED83E992E00E949D18B8
:1044B0008091B50262E2813009F061EF83E992E018
:1044C0000E949D1866E082EA95E00E94E8178091BC
:1044D000B0029091B102892B09F405C12091CC0260
:1044E0003091CD024091CE025091CF0260E074E253
:1044F00084EF90E00E94D62C2051310941095109E6
:1045000056954795379527952093B8000CCE61E0D6
:104510008091B9020E94EA0A61E08091BA020E9489
:10452000EA0A8091B902082E000C990BFC01E35BAA
:10453000FC4EE491F0E0EE0FFF1FEC54FA4F259192
:1045400034913093C1022093C002FC01EF59FC4E1C
:10455000E491E093C6028091BA02082E000C990BF8
:10456000FC01E35BFC4EE491F0E0EE0FFF1FEC5426
:10457000FA4FA591B491B093C302A093C202FC017B
:10458000EF59FC4EE491E093C7028C91E82BEC9339
:104590008091AE029091AF02892B09F434C01FB70D
:1045A000F89480911E02811127C0E7E5F3E1849120
:1045B000EBE6F3E19491E82FF0E0EE0FFF1FE856F1
:1045C000FA4FA591B491EC91E92321F461E08AE0DE
:1045D0000E947A0A61E08AE00E94EA0A8CB5806152
:1045E0008CBD8CB580648CBD61E08DE00E94EA0AD0
:1045F00061E08BE00E94EA0A80911E028F5F809347
:104600001E021FBFBECE61E08091B7020E94EA0A7F
:1046100061E08091B8020E94EA0A8091B702082EF8
:10462000000C990BFC01E35BFC4EE491F0E0EE0F13
:10463000FF1FEC54FA4F259134913093BD02209323
:10464000BC02FC01EF59FC4EE491E093C40280915E
:10465000B802082E000C990BFC01E35BFC4EE491C0
:10466000F0E0EE0FFF1FEC54FA4FA591B491B09318
:10467000BF02A093BE02FC01EF59FC4EE491E0930F
:10468000C5028C91E095E823EC937BCE8091AE023D
:104690009091AF02892B31F08091D1029091D2029A
:1046A0000E94EB0FE091C202F091C30290818091D1
:1046B000C702809589238083A5CE8FECDCCE80361F
:1046C000910569F48091990290919A02409739F48A
:1046D0008091B502813029F480E18093D00212E00C
:1046E000CDCE8FEAFACFE091C202F091C302808171
:1046F0009091C702892B808316CD8B3309F4C1CDED
:10470000823409F09CCDBDCD8CE0F4CD809169025E
:1047100080933C0290E1F92E0E94E70900912D025E
:1047200010912E02080F191F10932E0200932D02D4
:104730006AE070E080E090E00E944B0BFA94F11088
:10474000EBCF84E0169507958A95E1F710932E023A
:1047500000932D02093C110518F081E0809331028D
:1047600060E085E292E00E94561B80912502803134
:1047700009F46FC0BE016F5F7F4F85E292E00E9437
:10478000EE0C882309F465C08D818F3109F461C076
:104790008FE18D8380916B0290916C020E94470C97
:1047A00065E272E080916B0290916C020E94280C8D
:1047B00040E06EE480916B0290916C020E94F40BD9
:1047C00040E06B8180916B0290916C020E94F40B2F
:1047D00040E06C8180916B0290916C020E94F40B1E
:1047E00080912502803141F040E06D8180916B0223
:1047F00090916C020E94F40B80916B0290916C027C
:1048000020916802222319F10E94470C882309F1A4
:1048100065E272E080916B0290916C020E94280C1C
:104820004091620268E480916B0290916C020E9458
:10483000F40B80916202811130C064E170E080E08D
:1048400090E00E944B0B80916B0290916C020E9451
:10485000470C89E080936502809169028230C0F143
:1048600010E080916902181798F5809165028C30EC
:1048700079F1612FCE0101960E94561B898180310A
:1048800029F1CE0101960E94600D90916502981762
:1048900010F4809365021F5FE4CF80916302882348
:1048A00029F060E0809164020E947A0A64E170E07D
:1048B00080E090E00E944B0B80916302882319F204
:1048C00061E0809164020E947A0ABDCF8CE0DDCF66
:1048D0000E947F0C1092660268E770E080E090E032
:1048E0000E944B0B88E19DE00FB6F894A895809349
:1048F00060000FBE9093600061E085E00E947A0A3C
:10490000B8EE8B2EB3E09B2EA12CB12CDD24D394DA
:10491000A8EE2A2EA3E03A2E8091560281110EC0F5
:1049200090E080E00E94CE2A54E6859FC0011124C9
:104930009093550280935402D0925602A8950E94FB
:104940007E0B6093500270935102809352029093B9
:10495000530282E00E94510A7C0181E0E114F104DB
:1049600009F080E080934F0283E00E94510A8C019D
:1049700081E00115110509F080E080934E0280E18D
:104980000E94510A21E0892B09F020E020934D027A
:1049900060E0CE010A960E94561B811144C0412C52
:1049A000512CFEEF6F2EF2EC7F2E0E947F0C409276
:1049B000490250924A0260924B0270924C02EF28D8
:1049C000B1F480914802811112C08091030190914D
:1049D0000401009709F077C080910201882309F44F
:1049E0006DC087E090E00E94C91A10920201012B6D
:1049F00009F475C010924402809103019091040162
:104A00008A30910508F0A9C5875F9A4DFC010C9486
:104A1000F82CC425D7280D275D28F0282F2A872AAF
:104A2000B429EF29DA29BE016F5F7F4FCE010A96C4
:104A30000E94EE0C882309F4B2CF6A8170E0762FD1
:104A40006627770F770F770F298188E0289F9001DD
:104A50001124262B372B8A858031E1F46885662363
:104A6000C9F070E08F81FB01E81BF109CF01969539
:104A7000982F8827979587950E94C22CCB01809705
:104A8000B90153E0660F771F5A95E1F760789C01F2
:104A9000260F371F2138F4EE3F070CF480CFB90101
:104AA000330F880B990B0E94872B20E030E040E009
:104AB0005CE30E943C2C2B013C0177CF82E090E02C
:104AC0000E94C91A94CF8730910519F490E080E0D4
:104AD000F7CF059709F48BCFD092450288CF80910C
:104AE000430281110EC080910301909104019C0149
:104AF0002850310922303105D0F490E080E00E9446
:104B0000C91A8091030190910401009719F006974A
:104B100009F072CF809144028F5F809344028F30FE
:104B200008F46ACF88E090E00E94C91A63CF00972A
:104B300011F0069731F78091460290914702009755
:104B400079F421E030E0309347022093460261E09F
:104B500085E00E947A0A61E08BE00E947A0AD1CF58
:104B6000019741F482E090E09093470280934602DF
:104B700060E0EECF109247021092460261E085E0BD
:104B80000E947A0A60E0E8CF90E080E00E94C91AB3
:104B900090914D0291110DC1109242022091540248
:104BA0003091550221343F4140F020ED37E0309301
:104BB000550220935402D0924102992381F08091B2
:104BC000400281110CC080915402909155028C5981
:104BD0009F4F9093550280935402D092410280914E
:104BE00042028F3050F080ED97E090935502809311
:104BF000540210924202D09241020E94991B1092DC
:104C0000A00210929F021092A2021092A10285E2CD
:104C100093E10E94FB1280913F02882309F4CFC0E8
:104C20008CE390E09093A00280939F021092A202E6
:104C30001092A102D092A702D092A8028EE193E135
:104C40000E94AF1CD092A702D092A8022CE3E22EC1
:104C5000F12CF092A002E0929F0220E130E030932C
:104C6000A2022093A10284E193E10E94FB126091D1
:104C70003D0270913E0290E080E041E00E94C61B40
:104C800012E01093A7021093A8021092A0021092B3
:104C90009F0240E150E05093A2024093A102809114
:104CA000540290915502B1010E94AE2C90E080E038
:104CB0004AE00E94C61B82E193E10E94FB128091B0
:104CC000540290915502B1010E94AE2C64E670E04E
:104CD0000E94AE2C90E080E04AE00E94C61B80E17A
:104CE00093E10E94FB12F092A002E0929F0288E101
:104CF00090E09093A2028093A10280913C028823CD
:104D0000C9F0D092A702D092A80260914902709196
:104D10004A0280914B0290914C020E940A1C88EF3B
:104D20000E9416138EE093E10E94FB121093A702DB
:104D30001093A8028091460290914702813091051C
:104D400009F040C08CE390E09093A00280939F0212
:104D500088E090E09093A2028093A102D092A702F3
:104D6000D092A80285E093E10E94AF1C82E080937C
:104D7000A7028093A802EE24E394F12C00E210E055
:104D800026E330E050E040E066E370E083E992E043
:104D90000E947A130E94FF180E94B31A0E94B71A49
:104DA0000E94991A90933B0280933A0290E080E02F
:104DB000A8C0809142028F5F80934202EFCE8CE1C7
:104DC00093E13ECF8230910599F48CE390E090938B
:104DD000A00280939F0288E090E09093A2028093CB
:104DE000A102D092A702D092A8028BEF92E1BCCF91
:104DF000892B09F68CE390E09093A00280939F02A8
:104E000088E090E09093A2028093A102D092A70242
:104E1000D092A80282EF92E1A7CF0E94BB1A88230A
:104E2000C1F10E947E0B2091540230915502620F15
:104E3000731F811D911D609336027093370280931A
:104E400038029093390261E084E00E947A0A61E0BE
:104E500086E00E947A0A0E947E0B60527C468B4F4D
:104E60009F4F609332027093330280933402909389
:104E700035028091460290914702029751F4809149
:104E80002F02909130028057944F9093300280937C
:104E90002F0282E090E00E94C91A0E947E0B40908F
:104EA00036025090370260903802709039024616F0
:104EB00057066806790690F40E94B71A61E089E007
:104EC0000E94EA0A85E090E00E94A80A61E08AE078
:104ED0000E947A0A83E090E00E94C91A0E94991AFF
:104EE00090933B0280933A0220913102222361F099
:104EF0008C30904348F00E94B71A0E94B31A89E0A0
:104F000090E00E94C91A8BC00E947E0B461A570A75
:104F1000680A790A80EA481686E8580681E0680639
:104F2000710408F07CC00E94991B1092A00210929C
:104F30009F021092A2021092A10288EE92E10E94BA
:104F4000AF1C80913102882321F180913A02909127
:104F50003B02B1010E94AE2C90E080E04AE00E944A
:104F6000C61B86EE92E10E94FB1280913A0290915C
:104F70003B02B1010E94AE2C64E670E00E94AE2CB0
:104F800090E080E04AE00E94C61B82EE92E10E941F
:104F9000FB124090360250903702609038027090B9
:104FA00039020E947E0BA3019201261B370B480B8E
:104FB000590BCA01B901A50194010E94D62CCA015E
:104FC000B9014AE00E94C61B80EE92E10E94FB12EA
:104FD000409036025090370260903802709039024B
:104FE0000E947E0BA3019201261B370B480B590B25
:104FF000CA01B901A50194010E94D62C24E630E033
:1050000040E050E00E94D62CCA01B9014AE00E945B
:10501000C61B8EED92E10E94FB120E94FF18809148
:105020004F028093480280914E0280934302809108
:105030004D02809340020E947E0B0091320210913B
:1050400033022091340230913502601771078207D4
:10505000930708F085C261E087E00E947A0AD09247
:105060003F02409050025090510260905202709066
:105070005302F8E74F0E511C611C711C0E947E0BFD
:10508000641575058605970508F071C20E947E0BB0
:1050900060FFE7CF80914102882319F38091540289
:1050A0009091550264E670E00E94AE2C90E080E0A2
:1050B0000E94D62A10924102D4CF0E94BB1A8823A4
:1050C000A9F080912F0290913002892B09F0A7CF8F
:1050D0000E947E0B6C507E4F8F4F9F4F6093360225
:1050E00070933702809338029093390283E090E006
:1050F0000E94C91A0E947E0B00913602109137025D
:1051000020913802309139026017710782079307A6
:1051100098F40E94991B4FE050E05093A0024093F6
:105120009F0288E090E09093A2028093A10285ED17
:1051300092E10E94AF1C71CF0E948D1B80913D02B5
:1051400090913E02019690933E0280933D02009121
:1051500046021091470220E030E04CE552E46091B5
:10516000490270914A0280914B0290914C020E9438
:10517000372C18165CF485E090E00E94C91A0230C2
:10518000110509F04CCF0E94891A49CF8091450240
:10519000882339F090E080E00E94C91A10924502FD
:1051A000EECF012B09F402CE84E090E0AACE0E945B
:1051B000BB1A882351F080912F02909130028057C2
:1051C000944F9093300280932F0281E090E00E94F0
:1051D000C91A80912F0290913002892B29F31FCF99
:1051E0000E94BB1A882321F10E947E0B68577C4ED7
:1051F0008F4F9F4F6093360270933702809338022F
:10520000909339028091460290914702029781F46F
:105210000E94891A0E947E0B6053784F8F4F9F4FD8
:10522000609336027093370280933802909339026C
:1052300084E090E00E94C91A0E947E0B0091360221
:1052400010913702209138023091390260177107AE
:105250008207930708F085C00E94991B1092A00254
:1052600010929F021092A2021092A10280ED92E190
:105270000E94AF1C40903602509037026090380276
:10528000709039020E947E0BA3019201261B370BFE
:10529000480B590BCA01B901A50194010E94D62CF3
:1052A000CA01B9014AE00E94C61B8EE591E00E9446
:1052B000B91B4090360250903702609038027090CF
:1052C00039020E947E0BA3019201261B370B480B6B
:1052D000590BCA01B901A50194010E94D62C24E6FC
:1052E00030E040E050E00E94D62CCA01B9014AE00B
:1052F0000E94C61B80E691E00E94B91B41E450E089
:105300005093A00240939F021092A2021092A10219
:105310008AEC92E10E94FB1281E490E09093A0025B
:1053200080939F02E0E1F0E0F093A202E093A102FB
:1053300060913D0270913E0290E080E041E00E9469
:10534000C61BEE24E394F12C00E210E029E330E0E8
:1053500050E040E069E370E083E992E00E947A1354
:105360005CCE82E090E0CDCD87E090E00E94C91A4B
:105370000E94991B1092A00210929F021092A2020A
:105380001092A10285EC92E10E94FB12D092A7023A
:10539000D092A80281EC92E10E94FB1282E08093FD
:1053A000A7028093A8028CEB92E10E94AF1C81EBD4
:1053B00092E1BFCE89E090E00E94C91A0E94991B39
:1053C0001092A00210929F021092A2021092A102CB
:1053D00087EA92E10E94AF1C8CE992E1AACE88E0B4
:1053E00090E00E94C91AD092A702D092A8020E940F
:1053F000991B1092A00210929F021092A20210928A
:10540000A10282E992E10E94FB128CE892E10E94E3
:10541000AF1C8DE792E10E94FB126091690270E07F
:1054200090E080E04AE00E94C61B8BE591E00E947C
:10543000B91B8BE692E10E94FB126091310270E091
:1054400090E080E04AE00E94C61B8BE591E00E945C
:10545000B91B82E08093A7028093A802DECD0E9450
:10546000BB1A882381F00E947E0B68587F4F8F4FB4
:105470009F4F609336027093370280933802909367
:1054800039020E94B31A85E090E00E94C91A0E9476
:105490007E0B60527C468B4F9F4F6093320270931D
:1054A000330280933402909335020E94991B10922C
:1054B000A00210929F021092A2021092A10280E616
:1054C00092E10E94AF1C6091490270914A02809162
:1054D0004B0290914C020E940A1C88EF0E94161306
:1054E0008EE592E10E94FB120E94FF1820E030E05E
:1054F00040E252E46091490270914A0280914B026D
:1055000090914C020E94512B87FF89CD4FCC20E017
:1055100030E04CE552E46091490270914A0280917A
:105520004B0290914C020E94372C18161CF485E017
:1055300090E0E7CC90E080E00E94C91A0E947E0BC8
:1055400068587F4F8F4F9F4F60933602709337029A
:10555000809338029093390262CD0E94C91A26CCFA
:1055600060E087E00E947A0A10923F027ACD80E0E4
:1055700090E0892B09F4D0C90E940000C9C987E2D4
:1055800091E090939402809393028091B202909163
:10559000B302009711F00C949A2D0895F999FECF5B
:1055A00092BD81BDF89A992780B50895262FF99963
:1055B000FECF1FBA92BD81BD20BD0FB6F894FA9AF6
:1055C000F99A0FBE019608955058BB27AA270E944A
:1055D000FC2A0C94FD2B0E94EF2B38F00E94F62B36
:1055E00020F039F49F3F19F426F40C94EC2B0EF4C0
:1055F000E095E7FB0C94E62BE92F0E940E2C58F364
:10560000BA17620773078407950720F079F4A6F5A7
:105610000C94302C0EF4E0950B2EBA2FA02D0B011C
:10562000B90190010C01CA01A0011124FF27591BE7
:1056300099F0593F50F4503E68F11A16F040A22FED
:10564000232F342F4427585FF3CF4695379527955E
:10565000A795F0405395C9F77EF41F16BA0B620B5D
:10566000730B840BBAF09150A1F0FF0FBB1F661FA4
:10567000771F881FC2F70EC0BA0F621F731F841FE7
:1056800048F4879577956795B795F7959E3F08F00D
:10569000B0CF9395880F08F09927EE0F97958795CF
:1056A00008950E94C22B08F481E008950E94162CF0
:1056B00088F09F5798F0B92F9927B751B0F0E1F0D3
:1056C000660F771F881F991F1AF0BA95C9F714C083
:1056D000B13091F00E94302CB1E008950C94302C40
:1056E000672F782F8827B85F39F0B93FCCF38695BC
:1056F00077956795B395D9F73EF490958095709519
:1057000061957F4F8F4F9F4F0895E89409C097FB95
:105710003EF490958095709561957F4F8F4F9F4F88
:105720009923A9F0F92F96E9BB279395F6958795CC
:1057300077956795B795F111F8CFFAF4BB0F11F48F
:1057400060FF1BC06F5F7F4F8F4F9F4F16C0882336
:1057500011F096E911C0772321F09EE8872F762F6C
:1057600005C0662371F096E8862F70E060E02AF0AD
:105770009A95660F771F881FDAF7880F9695879599
:1057800097F90895990F0008550FAA0BE0E8FEEF6E
:1057900016161706E807F907C0F012161306E407F5
:1057A000F50798F0621B730B840B950B39F40A26EE
:1057B00061F0232B242B252B21F408950A2609F4CC
:1057C000A140A6958FEF811D811D089597F99F67D0
:1057D00080E870E060E008959FEF80EC0895002479
:1057E0000A941616170618060906089500240A9446
:1057F00012161306140605060895092E0394000CCC
:1058000011F4882352F0BB0F40F4BF2B11F460FF5A
:1058100004C06F5F7F4F8F4F9F4F089557FD905883
:10582000440F551F59F05F3F71F04795880F97FB64
:10583000991F61F09F3F79F087950895121613061E
:105840001406551FF2CF4695F1DF08C0161617064D
:105850001806991FF1CF8695710561050894089582
:10586000E894BB2766277727CB0197F908950E9414
:10587000C22B08F48FEF08950E944F2C0C94FD2B3F
:105880000E94EF2B38F00E94F62B20F0952311F0A8
:105890000C94E62B0C94EC2B11240C94312C0E94CC
:1058A0000E2C70F3959FC1F3950F50E0551F629F2A
:1058B000F001729FBB27F00DB11D639FAA27F00D69
:1058C000B11DAA1F649F6627B00DA11D661F829F90
:1058D0002227B00DA11D621F739FB00DA11D621F75
:1058E000839FA00D611D221F749F3327A00D611D92
:1058F000231F849F600D211D822F762F6A2F112474
:105900009F5750409AF0F1F088234AF0EE0FFF1FA6
:10591000BB1F661F771F881F91505040A9F79E3FFD
:10592000510580F00C94E62B0C94312C5F3FE4F38E
:10593000983ED4F3869577956795B795F795E79553
:105940009F5FC1F7FE2B880F911D9695879597F95C
:1059500008950E94C22B880B990B0895AA1BBB1BAC
:1059600051E107C0AA1FBB1FA617B70710F0A61B5F
:10597000B70B881F991F5A95A9F780959095BC0180
:10598000CD01089597FB072E16F4009407D077FDFC
:1059900009D00E94AE2C07FC05D03EF4909581956D
:1059A0009F4F0895709561957F4F0895A1E21A2E3B
:1059B000AA1BBB1BFD010DC0AA1FBB1FEE1FFF1FB3
:1059C000A217B307E407F50720F0A21BB30BE40B03
:1059D000F50B661F771F881F991F1A9469F760954A
:1059E0007095809590959B01AC01BD01CF01089504
:1059F000EE0FFF1F0590F491E02D09940F931F9374
:105A0000CF93DF938230910510F482E090E0E09133
:105A1000D502F091D60230E020E0B0E0A0E030976F
:105A200099F42115310509F44AC0281B390B24309B
:105A30003105D8F58A819B816115710589F1FB01DA
:105A400093838283FE0111C04081518102811381C1
:105A500048175907E0F04817590799F4109761F073
:105A600012960C93129713961C933296CF01DF91E6
:105A7000CF911F910F9108950093D5021093D602F4
:105A8000F4CF2115310551F04217530738F0A90121
:105A9000DB019A01BD01DF01F801C1CFEF01F9CFB0
:105AA0009093D6028093D502CDCFFE01E20FF31F73
:105AB000819391932250310939832883D7CF209144
:105AC000D3023091D402232B41F42091070130916D
:105AD00008013093D4022093D30220910501309124
